Component: ARM Compiler 5.05 update 1 (build 106) Tool: armlink [4d0efa]

==============================================================================

Section Cross References

    main.o(.text) refers to delay.o(.text) for delay_init
    main.o(.text) refers to misc.o(.text) for NVIC_PriorityGroupConfig
    main.o(.text) refers to usart.o(.text) for uart_init
    main.o(.text) refers to led.o(.text) for LED_Init
    main.o(.text) refers to motor.o(.text) for TIM1_PWM_Init
    main.o(.text) refers to timer.o(.text) for TIM6_Init
    main.o(.text) refers to command.o(.text) for motor_travel_fc
    main.o(.text) refers to stm32f10x_usart.o(.text) for USART_SendData
    main.o(.text) refers to usart.o(.data) for USART_RX_STA
    main.o(.text) refers to main.o(.data) for command_success
    system_stm32f10x.o(.text) refers to system_stm32f10x.o(.data) for SystemCoreClock
    led.o(.text) refers to stm32f10x_rcc.o(.text) for RCC_APB2PeriphClockCmd
    led.o(.text) refers to stm32f10x_gpio.o(.text) for GPIO_Init
    key.o(.text) refers to stm32f10x_rcc.o(.text) for RCC_APB2PeriphClockCmd
    key.o(.text) refers to stm32f10x_gpio.o(.text) for GPIO_Init
    key.o(.text) refers to delay.o(.text) for delay_ms
    key.o(.text) refers to key.o(.data) for key_up
    motor.o(.text) refers to stm32f10x_rcc.o(.text) for RCC_APB2PeriphClockCmd
==============================================================================

Removing Unused input sections from the image.

    Removing main.o(.constdata), (256 bytes).
    Removing key.o(.text), (252 bytes).
    Removing key.o(.data), (1 bytes).
    Removing timer.o(.constdata), (256 bytes).
    Removing pid.o(.text), (384 bytes).
    Removing pid.o(.data), (68 bytes).
    Removing sys.o(.emb_text), (6 bytes).
    Removing sys.o(.text), (12 bytes).
    Removing core_cm3.o(.emb_text), (32 bytes).

9 unused section(s) (total 1267 bytes) removed from the image.

==============================================================================

Image Symbol Table

    Local Symbols

    Symbol Name                              Value     Ov Type        Size  Object(Section)

    ../clib/angel/boardlib.s                 0x00000000   Number         0  boardinit1.o ABSOLUTE
    ../clib/angel/boardlib.s                 0x00000000   Number         0  boardshut.o ABSOLUTE
    ../clib/angel/boardlib.s                 0x00000000   Number         0  boardinit2.o ABSOLUTE
    ../clib/angel/boardlib.s                 0x00000000   Number         0  boardinit3.o ABSOLUTE
    ../clib/angel/handlers.s                 0x00000000   Number         0  __scatter_zi.o ABSOLUTE
    ../clib/angel/handlers.s                 0x00000000   Number         0  __scatter_copy.o ABSOLUTE
    ../clib/angel/kernel.s                   0x00000000   Number         0  __rtentry2.o ABSOLUTE
    ../clib/angel/kernel.s                   0x00000000   Number         0  __rtentry.o ABSOLUTE
    ../clib/angel/kernel.s                   0x00000000   Number         0  __rtentry4.o ABSOLUTE
    ../clib/angel/kernel.s                   0x00000000   Number         0  rtexit2.o ABSOLUTE
    ../clib/angel/kernel.s                   0x00000000   Number         0  rtexit.o ABSOLUTE
    ../clib/angel/rt.s                       0x00000000   Number         0  rt_locale.o ABSOLUTE
    ../clib/angel/rt.s                       0x00000000   Number         0  rt_ctype_table.o ABSOLUTE
    ../clib/angel/rt.s                       0x00000000   Number         0  rt_errno_addr.o ABSOLUTE
    ../clib/angel/rt.s                       0x00000000   Number         0  rt_locale_intlibspace.o ABSOLUTE
    ../clib/angel/rt.s                       0x00000000   Number         0  rt_errno_addr_intlibspace.o ABSOLUTE
    ../clib/angel/rt.s                       0x00000000   Number         0  rt_raise.o ABSOLUTE
    ../clib/angel/scatter.s                  0x00000000   Number         0  __scatter.o ABSOLUTE
    ../clib/angel/startup.s                  0x00000000   Number         0  __main.o ABSOLUTE
    ../clib/angel/sys.s                      0x00000000   Number         0  libspace.o ABSOLUTE
    ../clib/angel/sys.s                      0x00000000   Number         0  indicate_semi.o ABSOLUTE
    ../clib/angel/sys.s                      0x00000000   Number         0  sys_stackheap_outer.o ABSOLUTE
    ../clib/angel/sys.s                      0x00000000   Number         0  use_no_semi.o ABSOLUTE
    ../clib/angel/sys.s                      0x00000000   Number         0  use_no_semi_2.o ABSOLUTE
    ../clib/angel/sysapp.c                   0x00000000   Number         0  sys_wrch.o ABSOLUTE
    ../clib/angel/sysapp.c                   0x00000000   Number         0  sys_command.o ABSOLUTE
    ../clib/armsys.c                         0x00000000   Number         0  argv_veneer.o ABSOLUTE
    ../clib/armsys.c                         0x00000000   Number         0  argv_veneer.o ABSOLUTE
    ../clib/armsys.c                         0x00000000   Number         0  _get_argv_nomalloc.o ABSOLUTE
    ../clib/armsys.c                         0x00000000   Number         0  no_argv.o ABSOLUTE
    ../clib/heapalloc.c                      0x00000000   Number         0  hrguard.o ABSOLUTE
    ../clib/heapaux.c                        0x00000000   Number         0  heapauxi.o ABSOLUTE
    ../clib/libinit.s                        0x00000000   Number         0  libshutdown2.o ABSOLUTE
    ../clib/libinit.s                        0x00000000   Number         0  libshutdown.o ABSOLUTE
    ../clib/libinit.s                        0x00000000   Number         0  libinit2.o ABSOLUTE
    ../clib/libinit.s                        0x00000000   Number         0  libinit.o ABSOLUTE
    ../clib/locale.s                         0x00000000   Number         0  lc_ctype_c.o ABSOLUTE
    ../clib/memcpset.s                       0x00000000   Number         0  strcmpv7m.o ABSOLUTE
    ../clib/memcpset.s                       0x00000000   Number         0  rt_memclr_w.o ABSOLUTE
    ../clib/scanf.c                          0x00000000   Number         0  atoi.o ABSOLUTE
    ../clib/scanf.c                          0x00000000   Number         0  _chval.o ABSOLUTE
    ../clib/scanf.c                          0x00000000   Number         0  strtol.o ABSOLUTE
    ../clib/scanf.c                          0x00000000   Number         0  _strtoul.o ABSOLUTE
    ../clib/signal.c                         0x00000000   Number         0  defsig_rtmem_inner.o ABSOLUTE
    ../clib/signal.c                         0x00000000   Number         0  defsig_rtmem_formal.o ABSOLUTE
    ../clib/signal.c                         0x00000000   Number         0  defsig_fpe_inner.o ABSOLUTE
    ../clib/signal.c                         0x00000000   Number         0  defsig_rtred_inner.o ABSOLUTE
    ../clib/signal.c                         0x00000000   Number         0  defsig_stak_inner.o ABSOLUTE
    ../clib/signal.c                         0x00000000   Number         0  defsig_pvfn_inner.o ABSOLUTE
    ../clib/signal.c                         0x00000000   Number         0  defsig_cppl_inner.o ABSOLUTE
    ../clib/signal.c                         0x00000000   Number         0  defsig_segv_inner.o ABSOLUTE
    ../clib/signal.c                         0x00000000   Number         0  defsig_other.o ABSOLUTE
    ../clib/signal.c                         0x00000000   Number         0  defsig_exit.o ABSOLUTE
    ../clib/signal.c                         0x00000000   Number         0  defsig_general.o ABSOLUTE
    ../clib/signal.c                         0x00000000   Number         0  defsig_rtmem_outer.o ABSOLUTE
    ../clib/signal.c                         0x00000000   Number         0  __raise.o ABSOLUTE
    ../clib/signal.c                         0x00000000   Number         0  defsig_abrt_inner.o ABSOLUTE
    ../clib/signal.s                         0x00000000   Number         0  defsig.o ABSOLUTE
    ../clib/stdlib.c                         0x00000000   Number         0  exit.o ABSOLUTE
    ../clib/string.c                         0x00000000   Number         0  strstr.o ABSOLUTE
    ../fplib/daddsub.s                       0x00000000   Number         0  daddsub_clz.o ABSOLUTE
    ../fplib/ddiv.s                          0x00000000   Number         0  ddiv.o ABSOLUTE
    ../fplib/dfix.s                          0x00000000   Number         0  dfix.o ABSOLUTE
    ../fplib/dflt.s                          0x00000000   Number         0  dflt_clz.o ABSOLUTE
    ../fplib/dnaninf.s                       0x00000000   Number         0  dnaninf.o ABSOLUTE
    ../fplib/dretinf.s                       0x00000000   Number         0  dretinf.o ABSOLUTE
    ../fplib/f2d.s                           0x00000000   Number         0  f2d.o ABSOLUTE
    ../fplib/faddsub.s                       0x00000000   Number         0  faddsub_clz.o ABSOLUTE
    ../fplib/fdiv.s                          0x00000000   Number         0  fdiv.o ABSOLUTE
    ../fplib/ffix.s                          0x00000000   Number         0  ffix.o ABSOLUTE
    ../fplib/ffixu.s                         0x00000000   Number         0  ffixu.o ABSOLUTE
    ../fplib/fflt.s                          0x00000000   Number         0  fflt_clz.o ABSOLUTE
    ../fplib/fmul.s                          0x00000000   Number         0  fmul.o ABSOLUTE
    ../fplib/fnaninf.s                       0x00000000   Number         0  fnaninf.o ABSOLUTE
    ../fplib/fpinit.s                        0x00000000   Number         0  fpinit.o ABSOLUTE
    ../fplib/fretinf.s                       0x00000000   Number         0  fretinf.o ABSOLUTE
    ../fplib/usenofp.s                       0x00000000   Number         0  usenofp.o ABSOLUTE
    ..\CORE\core_cm3.c                       0x00000000   Number         0  core_cm3.o ABSOLUTE
    ..\CORE\startup_stm32f10x_hd.s           0x00000000   Number         0  startup_stm32f10x_hd.o ABSOLUTE
    ..\HARDWARE\COMMAND\command.c            0x00000000   Number         0  command.o ABSOLUTE
    ..\HARDWARE\CONTROL\control.c            0x00000000   Number         0  control.o ABSOLUTE
    ..\HARDWARE\ENC\enc.c                    0x00000000   Number         0  enc.o ABSOLUTE
    ..\HARDWARE\KEY\key.c                    0x00000000   Number         0  key.o ABSOLUTE
    ..\HARDWARE\LED\led.c                    0x00000000   Number         0  led.o ABSOLUTE
    ..\HARDWARE\MOTOR\motor.c                0x00000000   Number         0  motor.o ABSOLUTE
    ..\HARDWARE\PID\pid.c                    0x00000000   Number         0  pid.o ABSOLUTE
    ..\HARDWARE\TIMER\timer.c                0x00000000   Number         0  timer.o ABSOLUTE
    ..\STM32F10x_FWLib\src\misc.c            0x00000000   Number         0  misc.o ABSOLUTE
    ..\STM32F10x_FWLib\src\stm32f10x_gpio.c  0x00000000   Number         0  stm32f10x_gpio.o ABSOLUTE
    ..\STM32F10x_FWLib\src\stm32f10x_rcc.c   0x00000000   Number         0  stm32f10x_rcc.o ABSOLUTE
    ..\STM32F10x_FWLib\src\stm32f10x_tim.c   0x00000000   Number         0  stm32f10x_tim.o ABSOLUTE
    ..\STM32F10x_FWLib\src\stm32f10x_usart.c 0x00000000   Number         0  stm32f10x_usart.o ABSOLUTE
    ..\SYSTEM\delay\delay.c                  0x00000000   Number         0  delay.o ABSOLUTE
    ..\SYSTEM\sys\sys.c                      0x00000000   Number         0  sys.o ABSOLUTE
    ..\SYSTEM\usart\usart.c                  0x00000000   Number         0  usart.o ABSOLUTE
    ..\\CORE\\core_cm3.c                     0x00000000   Number         0  core_cm3.o ABSOLUTE
    ..\\SYSTEM\\sys\\sys.c                   0x00000000   Number         0  sys.o ABSOLUTE
    dc.s                                     0x00000000   Number         0  dc.o ABSOLUTE
    main.c                                   0x00000000   Number         0  main.o ABSOLUTE
    stm32f10x_it.c                           0x00000000   Number         0  stm32f10x_it.o ABSOLUTE
    system_stm32f10x.c                       0x00000000   Number         0  system_stm32f10x.o ABSOLUTE
    RESET                                    0x08000000   Section      304  startup_stm32f10x_hd.o(RESET)
    !!!main                                  0x08000130   Section        8  __main.o(!!!main)
    !!!scatter                               0x08000138   Section       52  __scatter.o(!!!scatter)
    !!handler_copy                           0x0800016c   Section       26  __scatter_copy.o(!!handler_copy)
    !!handler_zi                             0x08000188   Section       28  __scatter_zi.o(!!handler_zi)
    .ARM.Collect$$libinit$$00000000          0x080001a4   Section        2  libinit.o(.ARM.Collect$$libinit$$00000000)
    .ARM.Collect$$libinit$$00000002          0x080001a6   Section        0  libinit2.o(.ARM.Collect$$libinit$$00000002)
    .ARM.Collect$$libinit$$00000004          0x080001a6   Section        0  libinit2.o(.ARM.Collect$$libinit$$00000004)
    .ARM.Collect$$libinit$$0000000A          0x080001a6   Section        0  libinit2.o(.ARM.Collect$$libinit$$0000000A)
    .ARM.Collect$$libinit$$0000000C          0x080001a6   Section        0  libinit2.o(.ARM.Collect$$libinit$$0000000C)
    .ARM.Collect$$libinit$$0000000E          0x080001a6   Section        0  libinit2.o(.ARM.Collect$$libinit$$0000000E)
    .ARM.Collect$$libinit$$0000000F          0x080001a6   Section        6  libinit2.o(.ARM.Collect$$libinit$$0000000F)
    .ARM.Collect$$libinit$$00000011          0x080001ac   Section        0  libinit2.o(.ARM.Collect$$libinit$$00000011)
    .ARM.Collect$$libinit$$00000012          0x080001ac   Section       12  libinit2.o(.ARM.Collect$$libinit$$00000012)
    .ARM.Collect$$libinit$$00000013          0x080001b8   Section        0  libinit2.o(.ARM.Collect$$libinit$$00000013)
    .ARM.Collect$$libinit$$00000015          0x080001b8   Section        0  libinit2.o(.ARM.Collect$$libinit$$00000015)
    .ARM.Collect$$libinit$$00000017          0x080001b8   Section        0  libinit2.o(.ARM.Collect$$libinit$$00000017)
    .ARM.Collect$$libinit$$00000019          0x080001b8   Section        0  libinit2.o(.ARM.Collect$$libinit$$00000019)
    .ARM.Collect$$libinit$$0000001B          0x080001b8   Section        0  libinit2.o(.ARM.Collect$$libinit$$0000001B)
    .ARM.Collect$$libinit$$0000001D          0x080001b8   Section        0  libinit2.o(.ARM.Collect$$libinit$$0000001D)
    .ARM.Collect$$libinit$$0000001F          0x080001b8   Section        0  libinit2.o(.ARM.Collect$$libinit$$0000001F)
    .ARM.Collect$$libinit$$00000021          0x080001b8   Section        0  libinit2.o(.ARM.Collect$$libinit$$00000021)
    .ARM.Collect$$libinit$$00000023          0x080001b8   Section        0  libinit2.o(.ARM.Collect$$libinit$$00000023)
    .ARM.Collect$$libinit$$00000025          0x080001b8   Section        0  libinit2.o(.ARM.Collect$$libinit$$00000025)
    .ARM.Collect$$libinit$$0000002C          0x080001b8   Section        0  libinit2.o(.ARM.Collect$$libinit$$0000002C)
    .ARM.Collect$$libinit$$0000002E          0x080001b8   Section        0  libinit2.o(.ARM.Collect$$libinit$$0000002E)
    .ARM.Collect$$libinit$$00000030          0x080001b8   Section        0  libinit2.o(.ARM.Collect$$libinit$$00000030)
    .ARM.Collect$$libinit$$00000032          0x080001b8   Section        0  libinit2.o(.ARM.Collect$$libinit$$00000032)
    .ARM.Collect$$libinit$$00000033          0x080001b8   Section        2  libinit2.o(.ARM.Collect$$libinit$$00000033)
    .ARM.Collect$$libshutdown$$00000000      0x080001ba   Section        2  libshutdown.o(.ARM.Collect$$libshutdown$$00000000)
    .ARM.Collect$$libshutdown$$00000003      0x080001bc   Section        0  libshutdown2.o(.ARM.Collect$$libshutdown$$00000003)
    .ARM.Collect$$libshutdown$$00000006      0x080001bc   Section        0  libshutdown2.o(.ARM.Collect$$libshutdown$$00000006)
    .ARM.Collect$$libshutdown$$00000009      0x080001bc   Section        0  libshutdown2.o(.ARM.Collect$$libshutdown$$00000009)
    .ARM.Collect$$libshutdown$$0000000B      0x080001bc   Section        0  libshutdown2.o(.ARM.Collect$$libshutdown$$0000000B)
    .ARM.Collect$$libshutdown$$0000000E      0x080001bc   Section        0  libshutdown2.o(.ARM.Collect$$libshutdown$$0000000E)
    .ARM.Collect$$libshutdown$$0000000F      0x080001bc   Section        2  libshutdown2.o(.ARM.Collect$$libshutdown$$0000000F)
    .ARM.Collect$$rtentry$$00000000          0x080001be   Section        0  __rtentry.o(.ARM.Collect$$rtentry$$00000000)
    .ARM.Collect$$rtentry$$00000002          0x080001be   Section        0  __rtentry2.o(.ARM.Collect$$rtentry$$00000002)
    .ARM.Collect$$rtentry$$00000004          0x080001be   Section        6  __rtentry4.o(.ARM.Collect$$rtentry$$00000004)
    .ARM.Collect$$rtentry$$00000009          0x080001c4   Section        0  __rtentry2.o(.ARM.Collect$$rtentry$$00000009)
    .ARM.Collect$$rtentry$$0000000A          0x080001c4   Section        4  __rtentry2.o(.ARM.Collect$$rtentry$$0000000A)
    .ARM.Collect$$rtentry$$0000000C          0x080001c8   Section        0  __rtentry2.o(.ARM.Collect$$rtentry$$0000000C)
    .ARM.Collect$$rtentry$$0000000D          0x080001c8   Section        8  __rtentry2.o(.ARM.Collect$$rtentry$$0000000D)
    .ARM.Collect$$rtexit$$00000000           0x080001d0   Section        2  rtexit.o(.ARM.Collect$$rtexit$$00000000)
    .ARM.Collect$$rtexit$$00000002           0x080001d2   Section        0  rtexit2.o(.ARM.Collect$$rtexit$$00000002)
    .ARM.Collect$$rtexit$$00000003           0x080001d2   Section        4  rtexit2.o(.ARM.Collect$$rtexit$$00000003)
    .ARM.Collect$$rtexit$$00000004           0x080001d6   Section        6  rtexit2.o(.ARM.Collect$$rtexit$$00000004)
    .text                                    0x080001dc   Section        0  main.o(.text)
    .text                                    0x0800029c   Section        0  stm32f10x_it.o(.text)
    .text                                    0x080002b8   Section        0  system_stm32f10x.o(.text)
    SetSysClockTo72                          0x080002b9   Thumb Code   214  system_stm32f10x.o(.text)
    SetSysClock                              0x0800038f   Thumb Code     8  system_stm32f10x.o(.text)
    .text                                    0x08000498   Section        0  led.o(.text)
    .text                                    0x08000528   Section        0  motor.o(.text)
    .text                                    0x08000f48   Section        0  enc.o(.text)
    .text                                    0x080011f8   Section        0  timer.o(.text)
    .text                                    0x08001270   Section        0  command.o(.text)
    .text                                    0x08001a44   Section        0  control.o(.text)
    .text                                    0x080020a4   Section        0  delay.o(.text)
    .text                                    0x08002178   Section        0  usart.o(.text)
    .text                                    0x080022c0   Section       64  startup_stm32f10x_hd.o(.text)
    .text                                    0x08002300   Section        0  misc.o(.text)
    .text                                    0x080023dc   Section        0  stm32f10x_gpio.o(.text)
    .text                                    0x08002738   Section        0  stm32f10x_rcc.o(.text)
    .text                                    0x08002adc   Section        0  stm32f10x_usart.o(.text)
    .text                                    0x08002ee4   Section        0  stm32f10x_tim.o(.text)
    TI4_Config                               0x0800338b   Thumb Code   130  stm32f10x_tim.o(.text)
    TI3_Config                               0x0800341f   Thumb Code   122  stm32f10x_tim.o(.text)
    TI2_Config                               0x080034b3   Thumb Code   130  stm32f10x_tim.o(.text)
    TI1_Config                               0x08003547   Thumb Code   108  stm32f10x_tim.o(.text)
    .text                                    0x08003cfe   Section        2  use_no_semi_2.o(.text)
    .text                                    0x08003d00   Section        0  atoi.o(.text)
    .text                                    0x08003d1a   Section        0  strstr.o(.text)
    .text                                    0x08003d3e   Section       78  rt_memclr_w.o(.text)
    .text                                    0x08003d8c   Section        0  heapauxi.o(.text)
    .text                                    0x08003d92   Section        2  use_no_semi.o(.text)
    .text                                    0x08003d94   Section        8  rt_errno_addr_intlibspace.o(.text)
    .text                                    0x08003d9c   Section        0  strtol.o(.text)
    .text                                    0x08003e0c   Section        8  libspace.o(.text)
    .text                                    0x08003e14   Section       16  rt_ctype_table.o(.text)
    .text                                    0x08003e24   Section        0  _strtoul.o(.text)
    .text                                    0x08003ec2   Section       74  sys_stackheap_outer.o(.text)
    .text                                    0x08003f0c   Section        8  rt_locale_intlibspace.o(.text)
    .text                                    0x08003f14   Section        0  _chval.o(.text)
    .text                                    0x08003f30   Section        0  exit.o(.text)
    .text                                    0x08003f3c   Section      128  strcmpv7m.o(.text)
    locale$$code                             0x08003fbc   Section       44  lc_ctype_c.o(locale$$code)
    x$fpl$fadd                               0x08003fe8   Section      196  faddsub_clz.o(x$fpl$fadd)
    _fadd1                                   0x08003ff7   Thumb Code     0  faddsub_clz.o(x$fpl$fadd)
    x$fpl$fdiv                               0x080040ac   Section      388  fdiv.o(x$fpl$fdiv)
    _fdiv1                                   0x080040ad   Thumb Code     0  fdiv.o(x$fpl$fdiv)
    x$fpl$ffix                               0x08004230   Section       54  ffix.o(x$fpl$ffix)
    x$fpl$ffixu                              0x08004268   Section       62  ffixu.o(x$fpl$ffixu)
    x$fpl$fflt                               0x080042a8   Section       48  fflt_clz.o(x$fpl$fflt)
    x$fpl$ffltu                              0x080042d8   Section       38  fflt_clz.o(x$fpl$ffltu)
    x$fpl$fmul                               0x08004300   Section      258  fmul.o(x$fpl$fmul)
    x$fpl$fnaninf                            0x08004402   Section      140  fnaninf.o(x$fpl$fnaninf)
    x$fpl$fretinf                            0x0800448e   Section       10  fretinf.o(x$fpl$fretinf)
    x$fpl$fsub                               0x08004498   Section      234  faddsub_clz.o(x$fpl$fsub)
    _fsub1                                   0x080044a7   Thumb Code     0  faddsub_clz.o(x$fpl$fsub)
    .constdata                               0x08004582   Section      256  command.o(.constdata)
    x$fpl$usenofp                            0x08004582   Section        0  usenofp.o(x$fpl$usenofp)
    crc7_table                               0x08004582   Data         256  command.o(.constdata)
    locale$$data                             0x080046a4   Section      272  lc_ctype_c.o(locale$$data)
    __lcctype_c_name                         0x080046a8   Data           2  lc_ctype_c.o(locale$$data)
    __lcctype_c_start                        0x080046b0   Data           0  lc_ctype_c.o(locale$$data)
    __lcctype_c_end                          0x080047b4   Data           0  lc_ctype_c.o(locale$$data)
    .data                                    0x20000000   Section       32  main.o(.data)
    .data                                    0x20000020   Section       20  system_stm32f10x.o(.data)
    .data                                    0x20000034   Section       44  motor.o(.data)
    .data                                    0x20000060   Section      120  control.o(.data)
    Bias1                                    0x200000ac   Data           4  control.o(.data)
    Pwm1                                     0x200000b0   Data           4  control.o(.data)
    Last_bias1                               0x200000b4   Data           4  control.o(.data)
    Bias2                                    0x200000b8   Data           4  control.o(.data)
    Pwm2                                     0x200000bc   Data           4  control.o(.data)
    Last_bias2                               0x200000c0   Data           4  control.o(.data)
    Bias3                                    0x200000c4   Data           4  control.o(.data)
    Pwm3                                     0x200000c8   Data           4  control.o(.data)
    Last_bias3                               0x200000cc   Data           4  control.o(.data)
    Bias4                                    0x200000d0   Data           4  control.o(.data)
    Last_bias4                               0x200000d4   Data           4  control.o(.data)
    .data                                    0x200000d8   Section        4  delay.o(.data)
    fac_us                                   0x200000d8   Data           1  delay.o(.data)
    fac_ms                                   0x200000da   Data           2  delay.o(.data)
    .data                                    0x200000dc   Section        6  usart.o(.data)
    .data                                    0x200000e2   Section       20  stm32f10x_rcc.o(.data)
    APBAHBPrescTable                         0x200000e2   Data          16  stm32f10x_rcc.o(.data)
    ADCPrescTable                            0x200000f2   Data           4  stm32f10x_rcc.o(.data)
    .bss                                     0x200000f8   Section      200  usart.o(.bss)
    .bss                                     0x200001c0   Section       96  libspace.o(.bss)
    HEAP                                     0x20000220   Section      512  startup_stm32f10x_hd.o(HEAP)
    Heap_Mem                                 0x20000220   Data         512  startup_stm32f10x_hd.o(HEAP)
    STACK                                    0x20000420   Section     1024  startup_stm32f10x_hd.o(STACK)
    Stack_Mem                                0x20000420   Data        1024  startup_stm32f10x_hd.o(STACK)
    __initial_sp                             0x20000820   Data           0  startup_stm32f10x_hd.o(STACK)

    Global Symbols

    Symbol Name                              Value     Ov Type        Size  Object(Section)

    BuildAttributes$$THM_ISAv4$P$D$K$B$S$PE$A:L22UL41UL21$X:L11$S22US41US21$IEEE1$IW$USESV6$~STKCKD$USESV7$~SHL$OSPACE$ROPI$EBA8$UX$STANDARDLIB$REQ8$PRES8$EABIv2 0x00000000   Number         0  anon$$obj.o ABSOLUTE
    __ARM_use_no_argv                        0x00000000   Number         0  main.o ABSOLUTE
    __ARM_exceptions_init                     - Undefined Weak Reference
    __alloca_initialize                       - Undefined Weak Reference
    __arm_preinit_                            - Undefined Weak Reference
    __cpp_initialize__aeabi_                  - Undefined Weak Reference
    __cxa_finalize                            - Undefined Weak Reference
    __sigvec_lookup                           - Undefined Weak Reference
    _atexit_init                              - Undefined Weak Reference
    _call_atexit_fns                          - Undefined Weak Reference
    _clock_init                               - Undefined Weak Reference
    _fp_trap_init                             - Undefined Weak Reference
    _fp_trap_shutdown                         - Undefined Weak Reference
    _get_lc_collate                           - Undefined Weak Reference
    _get_lc_monetary                          - Undefined Weak Reference
    _get_lc_numeric                           - Undefined Weak Reference
    _get_lc_time                              - Undefined Weak Reference
    _getenv_init                              - Undefined Weak Reference
    _handle_redirection                       - Undefined Weak Reference
    _init_alloc                               - Undefined Weak Reference
    _init_user_alloc                          - Undefined Weak Reference
    _initio                                   - Undefined Weak Reference
    _rand_init                                - Undefined Weak Reference
    _signal_finish                            - Undefined Weak Reference
    _signal_init                              - Undefined Weak Reference
    _terminate_alloc                          - Undefined Weak Reference
    _terminate_user_alloc                     - Undefined Weak Reference
    _terminateio                              - Undefined Weak Reference
    __Vectors_Size                           0x00000130   Number         0  startup_stm32f10x_hd.o ABSOLUTE
    __Vectors                                0x08000000   Data           4  startup_stm32f10x_hd.o(RESET)
    __Vectors_End                            0x08000130   Data           0  startup_stm32f10x_hd.o(RESET)
    __main                                   0x08000131   Thumb Code     8  __main.o(!!!main)
    __scatterload                            0x08000139   Thumb Code     0  __scatter.o(!!!scatter)
    __scatterload_rt2                        0x08000139   Thumb Code    44  __scatter.o(!!!scatter)
    __scatterload_rt2_thumb_only             0x08000139   Thumb Code     0  __scatter.o(!!!scatter)
    __scatterload_null                       0x08000147   Thumb Code     0  __scatter.o(!!!scatter)
    __scatterload_copy                       0x0800016d   Thumb Code    26  __scatter_copy.o(!!handler_copy)
    __scatterload_zeroinit                   0x08000189   Thumb Code    28  __scatter_zi.o(!!handler_zi)
    __rt_lib_init                            0x080001a5   Thumb Code     0  libinit.o(.ARM.Collect$$libinit$$00000000)
    __rt_lib_init_fp_1                       0x080001a7   Thumb Code     0  libinit2.o(.ARM.Collect$$libinit$$00000002)
    __rt_lib_init_heap_1                     0x080001a7   Thumb Code     0  libinit2.o(.ARM.Collect$$libinit$$0000000A)
    __rt_lib_init_lc_common                  0x080001a7   Thumb Code     0  libinit2.o(.ARM.Collect$$libinit$$0000000F)
    __rt_lib_init_preinit_1                  0x080001a7   Thumb Code     0  libinit2.o(.ARM.Collect$$libinit$$00000004)
    __rt_lib_init_rand_1                     0x080001a7   Thumb Code     0  libinit2.o(.ARM.Collect$$libinit$$0000000E)
    __rt_lib_init_user_alloc_1               0x080001a7   Thumb Code     0  libinit2.o(.ARM.Collect$$libinit$$0000000C)
    __rt_lib_init_lc_collate_1               0x080001ad   Thumb Code     0  libinit2.o(.ARM.Collect$$libinit$$00000011)
    __rt_lib_init_lc_ctype_2                 0x080001ad   Thumb Code     0  libinit2.o(.ARM.Collect$$libinit$$00000012)
    __rt_lib_init_alloca_1                   0x080001b9   Thumb Code     0  libinit2.o(.ARM.Collect$$libinit$$0000002E)
    __rt_lib_init_argv_1                     0x080001b9   Thumb Code     0  libinit2.o(.ARM.Collect$$libinit$$0000002C)
    __rt_lib_init_atexit_1                   0x080001b9   Thumb Code     0  libinit2.o(.ARM.Collect$$libinit$$0000001B)
    __rt_lib_init_clock_1                    0x080001b9   Thumb Code     0  libinit2.o(.ARM.Collect$$libinit$$00000021)
    __rt_lib_init_cpp_1                      0x080001b9   Thumb Code     0  libinit2.o(.ARM.Collect$$libinit$$00000032)
    __rt_lib_init_exceptions_1               0x080001b9   Thumb Code     0  libinit2.o(.ARM.Collect$$libinit$$00000030)
    __rt_lib_init_fp_trap_1                  0x080001b9   Thumb Code     0  libinit2.o(.ARM.Collect$$libinit$$0000001F)
    __rt_lib_init_getenv_1                   0x080001b9   Thumb Code     0  libinit2.o(.ARM.Collect$$libinit$$00000023)
    __rt_lib_init_lc_ctype_1                 0x080001b9   Thumb Code     0  libinit2.o(.ARM.Collect$$libinit$$00000013)
    __rt_lib_init_lc_monetary_1              0x080001b9   Thumb Code     0  libinit2.o(.ARM.Collect$$libinit$$00000015)
    __rt_lib_init_lc_numeric_1               0x080001b9   Thumb Code     0  libinit2.o(.ARM.Collect$$libinit$$00000017)
    __rt_lib_init_lc_time_1                  0x080001b9   Thumb Code     0  libinit2.o(.ARM.Collect$$libinit$$00000019)
    __rt_lib_init_return                     0x080001b9   Thumb Code     0  libinit2.o(.ARM.Collect$$libinit$$00000033)
    __rt_lib_init_signal_1                   0x080001b9   Thumb Code     0  libinit2.o(.ARM.Collect$$libinit$$0000001D)
    __rt_lib_init_stdio_1                    0x080001b9   Thumb Code     0  libinit2.o(.ARM.Collect$$libinit$$00000025)
    __rt_lib_shutdown                        0x080001bb   Thumb Code     0  libshutdown.o(.ARM.Collect$$libshutdown$$00000000)
    __rt_lib_shutdown_fp_trap_1              0x080001bd   Thumb Code     0  libshutdown2.o(.ARM.Collect$$libshutdown$$00000006)
    __rt_lib_shutdown_heap_1                 0x080001bd   Thumb Code     0  libshutdown2.o(.ARM.Collect$$libshutdown$$0000000E)
    __rt_lib_shutdown_return                 0x080001bd   Thumb Code     0  libshutdown2.o(.ARM.Collect$$libshutdown$$0000000F)
    __rt_lib_shutdown_signal_1               0x080001bd   Thumb Code     0  libshutdown2.o(.ARM.Collect$$libshutdown$$00000009)
    __rt_lib_shutdown_stdio_1                0x080001bd   Thumb Code     0  libshutdown2.o(.ARM.Collect$$libshutdown$$00000003)
    __rt_lib_shutdown_user_alloc_1           0x080001bd   Thumb Code     0  libshutdown2.o(.ARM.Collect$$libshutdown$$0000000B)
    __rt_entry                               0x080001bf   Thumb Code     0  __rtentry.o(.ARM.Collect$$rtentry$$00000000)
    __rt_entry_presh_1                       0x080001bf   Thumb Code     0  __rtentry2.o(.ARM.Collect$$rtentry$$00000002)
    __rt_entry_sh                            0x080001bf   Thumb Code     0  __rtentry4.o(.ARM.Collect$$rtentry$$00000004)
    __rt_entry_li                            0x080001c5   Thumb Code     0  __rtentry2.o(.ARM.Collect$$rtentry$$0000000A)
    __rt_entry_postsh_1                      0x080001c5   Thumb Code     0  __rtentry2.o(.ARM.Collect$$rtentry$$00000009)
    __rt_entry_main                          0x080001c9   Thumb Code     0  __rtentry2.o(.ARM.Collect$$rtentry$$0000000D)
    __rt_entry_postli_1                      0x080001c9   Thumb Code     0  __rtentry2.o(.ARM.Collect$$rtentry$$0000000C)
    __rt_exit                                0x080001d1   Thumb Code     0  rtexit.o(.ARM.Collect$$rtexit$$00000000)
    __rt_exit_ls                             0x080001d3   Thumb Code     0  rtexit2.o(.ARM.Collect$$rtexit$$00000003)
    __rt_exit_prels_1                        0x080001d3   Thumb Code     0  rtexit2.o(.ARM.Collect$$rtexit$$00000002)
    __rt_exit_exit                           0x080001d7   Thumb Code     0  rtexit2.o(.ARM.Collect$$rtexit$$00000004)
    main                                     0x080001dd   Thumb Code   178  main.o(.text)
    NMI_Handler                              0x0800029d   Thumb Code     2  stm32f10x_it.o(.text)
    HardFault_Handler                        0x0800029f   Thumb Code     4  stm32f10x_it.o(.text)
    MemManage_Handler                        0x080002a3   Thumb Code     4  stm32f10x_it.o(.text)
    BusFault_Handler                         0x080002a7   Thumb Code     4  stm32f10x_it.o(.text)
    UsageFault_Handler                       0x080002ab   Thumb Code     4  stm32f10x_it.o(.text)
    SVC_Handler                              0x080002af   Thumb Code     2  stm32f10x_it.o(.text)
    DebugMon_Handler                         0x080002b1   Thumb Code     2  stm32f10x_it.o(.text)
    PendSV_Handler                           0x080002b3   Thumb Code     2  stm32f10x_it.o(.text)
    SysTick_Handler                          0x080002b5   Thumb Code     2  stm32f10x_it.o(.text)
    SystemInit                               0x08000397   Thumb Code    78  system_stm32f10x.o(.text)
    SystemCoreClockUpdate                    0x080003e5   Thumb Code   142  system_stm32f10x.o(.text)
    LED_Init                                 0x08000499   Thumb Code   132  led.o(.text)
    MOTOR_EN_Init                            0x08000529   Thumb Code    50  motor.o(.text)
    TIM1_PWM_Init                            0x0800055b   Thumb Code   284  motor.o(.text)
    TIM8_PWM_Init                            0x08000677   Thumb Code   302  motor.o(.text)
    MOTOR_RUN_SPEED                          0x080007a5   Thumb Code   912  motor.o(.text)
    MOTOR_STOP                               0x08000b35   Thumb Code   148  motor.o(.text)
    MOTOR_CODE                               0x08000bc9   Thumb Code   860  motor.o(.text)
    ENC2_Init                                0x08000f49   Thumb Code   198  enc.o(.text)
    ENC3_Init                                0x0800100f   Thumb Code   160  enc.o(.text)
    ENC4_Init                                0x080010af   Thumb Code   146  enc.o(.text)
    ENC5_Init                                0x08001141   Thumb Code   146  enc.o(.text)
    TIM6_Init                                0x080011f9   Thumb Code   116  timer.o(.text)
    get_crc7                                 0x08001271   Thumb Code    30  command.o(.text)
    motor_travel_fc                          0x0800128f   Thumb Code   318  command.o(.text)
    motor_start_debug                        0x080013cd   Thumb Code    68  command.o(.text)
    motor_init_debug                         0x08001411   Thumb Code   288  command.o(.text)
    motor_round_debug2                       0x08001531   Thumb Code    76  command.o(.text)
    motor_round_debug1                       0x0800157d   Thumb Code    76  command.o(.text)
    motor_stop_debug                         0x080015c9   Thumb Code    44  command.o(.text)
    pid_debug                                0x080015f5   Thumb Code    34  command.o(.text)
    motor_code_debug                         0x08001617   Thumb Code  1048  command.o(.text)
    Read_Encoder_cha                         0x08001a45   Thumb Code    98  control.o(.text)
    TIM6_IRQHandler                          0x08001aa7   Thumb Code   552  control.o(.text)
    Set_Pwm                                  0x08001ccf   Thumb Code   188  control.o(.text)
    Xianfu_Pwm                               0x08001d8b   Thumb Code   116  control.o(.text)
    myabs                                    0x08001dff   Thumb Code    14  control.o(.text)
    Incremental_PI                           0x08001e0d   Thumb Code   584  control.o(.text)
    delay_init                               0x080020a5   Thumb Code    50  delay.o(.text)
    delay_us                                 0x080020d7   Thumb Code    72  delay.o(.text)
    delay_ms                                 0x0800211f   Thumb Code    72  delay.o(.text)
    _sys_exit                                0x08002179   Thumb Code     6  usart.o(.text)
    fputc                                    0x0800217f   Thumb Code    24  usart.o(.text)
    uart_init                                0x08002197   Thumb Code   154  usart.o(.text)
    USART2_IRQHandler                        0x08002231   Thumb Code   122  usart.o(.text)
    Reset_Handler                            0x080022c1   Thumb Code     8  startup_stm32f10x_hd.o(.text)
    ADC1_2_IRQHandler                        0x080022db   Thumb Code     0  startup_stm32f10x_hd.o(.text)
    ADC3_IRQHandler                          0x080022db   Thumb Code     0  startup_stm32f10x_hd.o(.text)
    CAN1_RX1_IRQHandler                      0x080022db   Thumb Code     0  startup_stm32f10x_hd.o(.text)
    CAN1_SCE_IRQHandler                      0x080022db   Thumb Code     0  startup_stm32f10x_hd.o(.text)
    DMA1_Channel1_IRQHandler                 0x080022db   Thumb Code     0  startup_stm32f10x_hd.o(.text)
    DMA1_Channel2_IRQHandler                 0x080022db   Thumb Code     0  startup_stm32f10x_hd.o(.text)
    DMA1_Channel3_IRQHandler                 0x080022db   Thumb Code     0  startup_stm32f10x_hd.o(.text)
    DMA1_Channel4_IRQHandler                 0x080022db   Thumb Code     0  startup_stm32f10x_hd.o(.text)
    DMA1_Channel5_IRQHandler                 0x080022db   Thumb Code     0  startup_stm32f10x_hd.o(.text)
    DMA1_Channel6_IRQHandler                 0x080022db   Thumb Code     0  startup_stm32f10x_hd.o(.text)
    DMA1_Channel7_IRQHandler                 0x080022db   Thumb Code     0  startup_stm32f10x_hd.o(.text)
    DMA2_Channel1_IRQHandler                 0x080022db   Thumb Code     0  startup_stm32f10x_hd.o(.text)
    DMA2_Channel2_IRQHandler                 0x080022db   Thumb Code     0  startup_stm32f10x_hd.o(.text)
    DMA2_Channel3_IRQHandler                 0x080022db   Thumb Code     0  startup_stm32f10x_hd.o(.text)
    DMA2_Channel4_5_IRQHandler               0x080022db   Thumb Code     0  startup_stm32f10x_hd.o(.text)
    EXTI0_IRQHandler                         0x080022db   Thumb Code     0  startup_stm32f10x_hd.o(.text)
    EXTI15_10_IRQHandler                     0x080022db   Thumb Code     0  startup_stm32f10x_hd.o(.text)
    EXTI1_IRQHandler                         0x080022db   Thumb Code     0  startup_stm32f10x_hd.o(.text)
    EXTI2_IRQHandler                         0x080022db   Thumb Code     0  startup_stm32f10x_hd.o(.text)
    EXTI3_IRQHandler                         0x080022db   Thumb Code     0  startup_stm32f10x_hd.o(.text)
    EXTI4_IRQHandler                         0x080022db   Thumb Code     0  startup_stm32f10x_hd.o(.text)
    EXTI9_5_IRQHandler                       0x080022db   Thumb Code     0  startup_stm32f10x_hd.o(.text)
    FLASH_IRQHandler                         0x080022db   Thumb Code     0  startup_stm32f10x_hd.o(.text)
    FSMC_IRQHandler                          0x080022db   Thumb Code     0  startup_stm32f10x_hd.o(.text)
    I2C1_ER_IRQHandler                       0x080022db   Thumb Code     0  startup_stm32f10x_hd.o(.text)
    I2C1_EV_IRQHandler                       0x080022db   Thumb Code     0  startup_stm32f10x_hd.o(.text)
    I2C2_ER_IRQHandler                       0x080022db   Thumb Code     0  startup_stm32f10x_hd.o(.text)
    I2C2_EV_IRQHandler                       0x080022db   Thumb Code     0  startup_stm32f10x_hd.o(.text)
    PVD_IRQHandler                           0x080022db   Thumb Code     0  startup_stm32f10x_hd.o(.text)
    RCC_IRQHandler                           0x080022db   Thumb Code     0  startup_stm32f10x_hd.o(.text)
    RTCAlarm_IRQHandler                      0x080022db   Thumb Code     0  startup_stm32f10x_hd.o(.text)
    RTC_IRQHandler                           0x080022db   Thumb Code     0  startup_stm32f10x_hd.o(.text)
    SDIO_IRQHandler                          0x080022db   Thumb Code     0  startup_stm32f10x_hd.o(.text)
    SPI1_IRQHandler                          0x080022db   Thumb Code     0  startup_stm32f10x_hd.o(.text)
    SPI2_IRQHandler                          0x080022db   Thumb Code     0  startup_stm32f10x_hd.o(.text)
    SPI3_IRQHandler                          0x080022db   Thumb Code     0  startup_stm32f10x_hd.o(.text)
    TAMPER_IRQHandler                        0x080022db   Thumb Code     0  startup_stm32f10x_hd.o(.text)
    TIM1_BRK_IRQHandler                      0x080022db   Thumb Code     0  startup_stm32f10x_hd.o(.text)
    TIM1_CC_IRQHandler                       0x080022db   Thumb Code     0  startup_stm32f10x_hd.o(.text)
    TIM1_TRG_COM_IRQHandler                  0x080022db   Thumb Code     0  startup_stm32f10x_hd.o(.text)
    TIM1_UP_IRQHandler                       0x080022db   Thumb Code     0  startup_stm32f10x_hd.o(.text)
    TIM2_IRQHandler                          0x080022db   Thumb Code     0  startup_stm32f10x_hd.o(.text)
    TIM3_IRQHandler                          0x080022db   Thumb Code     0  startup_stm32f10x_hd.o(.text)
    TIM4_IRQHandler                          0x080022db   Thumb Code     0  startup_stm32f10x_hd.o(.text)
    TIM5_IRQHandler                          0x080022db   Thumb Code     0  startup_stm32f10x_hd.o(.text)
    TIM7_IRQHandler                          0x080022db   Thumb Code     0  startup_stm32f10x_hd.o(.text)
    TIM8_BRK_IRQHandler                      0x080022db   Thumb Code     0  startup_stm32f10x_hd.o(.text)
    TIM8_CC_IRQHandler                       0x080022db   Thumb Code     0  startup_stm32f10x_hd.o(.text)
    TIM8_TRG_COM_IRQHandler                  0x080022db   Thumb Code     0  startup_stm32f10x_hd.o(.text)
    TIM8_UP_IRQHandler                       0x080022db   Thumb Code     0  startup_stm32f10x_hd.o(.text)
    UART4_IRQHandler                         0x080022db   Thumb Code     0  startup_stm32f10x_hd.o(.text)
    UART5_IRQHandler                         0x080022db   Thumb Code     0  startup_stm32f10x_hd.o(.text)
    USART1_IRQHandler                        0x080022db   Thumb Code     0  startup_stm32f10x_hd.o(.text)
    USART3_IRQHandler                        0x080022db   Thumb Code     0  startup_stm32f10x_hd.o(.text)
    USBWakeUp_IRQHandler                     0x080022db   Thumb Code     0  startup_stm32f10x_hd.o(.text)
    USB_HP_CAN1_TX_IRQHandler                0x080022db   Thumb Code     0  startup_stm32f10x_hd.o(.text)
    USB_LP_CAN1_RX0_IRQHandler               0x080022db   Thumb Code     0  startup_stm32f10x_hd.o(.text)
    WWDG_IRQHandler                          0x080022db   Thumb Code     0  startup_stm32f10x_hd.o(.text)
    __user_initial_stackheap                 0x080022dd   Thumb Code     0  startup_stm32f10x_hd.o(.text)
    NVIC_PriorityGroupConfig                 0x08002301   Thumb Code    10  misc.o(.text)
    NVIC_Init                                0x0800230b   Thumb Code   100  misc.o(.text)
    NVIC_SetVectorTable                      0x0800236f   Thumb Code    14  misc.o(.text)
    NVIC_SystemLPConfig                      0x0800237d   Thumb Code    34  misc.o(.text)
    SysTick_CLKSourceConfig                  0x0800239f   Thumb Code    40  misc.o(.text)
    GPIO_DeInit                              0x080023dd   Thumb Code   172  stm32f10x_gpio.o(.text)
    GPIO_AFIODeInit                          0x08002489   Thumb Code    20  stm32f10x_gpio.o(.text)
    GPIO_Init                                0x0800249d   Thumb Code   278  stm32f10x_gpio.o(.text)
    GPIO_StructInit                          0x080025b3   Thumb Code    16  stm32f10x_gpio.o(.text)
    GPIO_ReadInputDataBit                    0x080025c3   Thumb Code    18  stm32f10x_gpio.o(.text)
    GPIO_ReadInputData                       0x080025d5   Thumb Code     8  stm32f10x_gpio.o(.text)
    GPIO_ReadOutputDataBit                   0x080025dd   Thumb Code    18  stm32f10x_gpio.o(.text)
    GPIO_ReadOutputData                      0x080025ef   Thumb Code     8  stm32f10x_gpio.o(.text)
    GPIO_SetBits                             0x080025f7   Thumb Code     4  stm32f10x_gpio.o(.text)
    GPIO_ResetBits                           0x080025fb   Thumb Code     4  stm32f10x_gpio.o(.text)
    GPIO_WriteBit                            0x080025ff   Thumb Code    10  stm32f10x_gpio.o(.text)
    GPIO_Write                               0x08002609   Thumb Code     4  stm32f10x_gpio.o(.text)
    GPIO_PinLockConfig                       0x0800260d   Thumb Code    18  stm32f10x_gpio.o(.text)
    GPIO_EventOutputConfig                   0x0800261f   Thumb Code    26  stm32f10x_gpio.o(.text)
    GPIO_EventOutputCmd                      0x08002639   Thumb Code     6  stm32f10x_gpio.o(.text)
    GPIO_PinRemapConfig                      0x0800263f   Thumb Code   138  stm32f10x_gpio.o(.text)
    GPIO_EXTILineConfig                      0x080026c9   Thumb Code    66  stm32f10x_gpio.o(.text)
    GPIO_ETH_MediaInterfaceConfig            0x0800270b   Thumb Code     8  stm32f10x_gpio.o(.text)
    RCC_DeInit                               0x08002739   Thumb Code    64  stm32f10x_rcc.o(.text)
    RCC_HSEConfig                            0x08002779   Thumb Code    70  stm32f10x_rcc.o(.text)
    RCC_GetFlagStatus                        0x080027bf   Thumb Code    56  stm32f10x_rcc.o(.text)
    RCC_WaitForHSEStartUp                    0x080027f7   Thumb Code    56  stm32f10x_rcc.o(.text)
    RCC_AdjustHSICalibrationValue            0x0800282f   Thumb Code    20  stm32f10x_rcc.o(.text)
    RCC_HSICmd                               0x08002843   Thumb Code     6  stm32f10x_rcc.o(.text)
    RCC_PLLConfig                            0x08002849   Thumb Code    24  stm32f10x_rcc.o(.text)
    RCC_PLLCmd                               0x08002861   Thumb Code     6  stm32f10x_rcc.o(.text)
    RCC_SYSCLKConfig                         0x08002867   Thumb Code    18  stm32f10x_rcc.o(.text)
    RCC_GetSYSCLKSource                      0x08002879   Thumb Code    10  stm32f10x_rcc.o(.text)
    RCC_HCLKConfig                           0x08002883   Thumb Code    18  stm32f10x_rcc.o(.text)
    RCC_PCLK1Config                          0x08002895   Thumb Code    18  stm32f10x_rcc.o(.text)
    RCC_PCLK2Config                          0x080028a7   Thumb Code    20  stm32f10x_rcc.o(.text)
    RCC_ITConfig                             0x080028bb   Thumb Code    26  stm32f10x_rcc.o(.text)
    RCC_USBCLKConfig                         0x080028d5   Thumb Code     8  stm32f10x_rcc.o(.text)
    RCC_ADCCLKConfig                         0x080028dd   Thumb Code    18  stm32f10x_rcc.o(.text)
    RCC_LSEConfig                            0x080028ef   Thumb Code    50  stm32f10x_rcc.o(.text)
    RCC_LSICmd                               0x08002921   Thumb Code     6  stm32f10x_rcc.o(.text)
    RCC_RTCCLKConfig                         0x08002927   Thumb Code    12  stm32f10x_rcc.o(.text)
    RCC_RTCCLKCmd                            0x08002933   Thumb Code     8  stm32f10x_rcc.o(.text)
    RCC_GetClocksFreq                        0x0800293b   Thumb Code   192  stm32f10x_rcc.o(.text)
    RCC_AHBPeriphClockCmd                    0x080029fb   Thumb Code    26  stm32f10x_rcc.o(.text)
    RCC_APB2PeriphClockCmd                   0x08002a15   Thumb Code    26  stm32f10x_rcc.o(.text)
    RCC_APB1PeriphClockCmd                   0x08002a2f   Thumb Code    26  stm32f10x_rcc.o(.text)
    RCC_APB2PeriphResetCmd                   0x08002a49   Thumb Code    26  stm32f10x_rcc.o(.text)
    RCC_APB1PeriphResetCmd                   0x08002a63   Thumb Code    26  stm32f10x_rcc.o(.text)
    RCC_BackupResetCmd                       0x08002a7d   Thumb Code     8  stm32f10x_rcc.o(.text)
    RCC_ClockSecuritySystemCmd               0x08002a85   Thumb Code     6  stm32f10x_rcc.o(.text)
    RCC_MCOConfig                            0x08002a8b   Thumb Code     6  stm32f10x_rcc.o(.text)
    RCC_ClearFlag                            0x08002a91   Thumb Code    14  stm32f10x_rcc.o(.text)
    RCC_GetITStatus                          0x08002a9f   Thumb Code    20  stm32f10x_rcc.o(.text)
    RCC_ClearITPendingBit                    0x08002ab3   Thumb Code     6  stm32f10x_rcc.o(.text)
    USART_DeInit                             0x08002add   Thumb Code   134  stm32f10x_usart.o(.text)
    USART_Init                               0x08002b63   Thumb Code   210  stm32f10x_usart.o(.text)
    USART_StructInit                         0x08002c35   Thumb Code    24  stm32f10x_usart.o(.text)
    USART_ClockInit                          0x08002c4d   Thumb Code    34  stm32f10x_usart.o(.text)
    USART_ClockStructInit                    0x08002c6f   Thumb Code    12  stm32f10x_usart.o(.text)
    USART_Cmd                                0x08002c7b   Thumb Code    24  stm32f10x_usart.o(.text)
    USART_ITConfig                           0x08002c93   Thumb Code    74  stm32f10x_usart.o(.text)
    USART_DMACmd                             0x08002cdd   Thumb Code    18  stm32f10x_usart.o(.text)
    USART_SetAddress                         0x08002cef   Thumb Code    18  stm32f10x_usart.o(.text)
    USART_WakeUpConfig                       0x08002d01   Thumb Code    18  stm32f10x_usart.o(.text)
    USART_ReceiverWakeUpCmd                  0x08002d13   Thumb Code    24  stm32f10x_usart.o(.text)
    USART_LINBreakDetectLengthConfig         0x08002d2b   Thumb Code    18  stm32f10x_usart.o(.text)
    USART_LINCmd                             0x08002d3d   Thumb Code    24  stm32f10x_usart.o(.text)
    USART_SendData                           0x08002d55   Thumb Code     8  stm32f10x_usart.o(.text)
    USART_ReceiveData                        0x08002d5d   Thumb Code    10  stm32f10x_usart.o(.text)
    USART_SendBreak                          0x08002d67   Thumb Code    10  stm32f10x_usart.o(.text)
    USART_SetGuardTime                       0x08002d71   Thumb Code    16  stm32f10x_usart.o(.text)
    USART_SetPrescaler                       0x08002d81   Thumb Code    16  stm32f10x_usart.o(.text)
    USART_SmartCardCmd                       0x08002d91   Thumb Code    24  stm32f10x_usart.o(.text)
    USART_SmartCardNACKCmd                   0x08002da9   Thumb Code    24  stm32f10x_usart.o(.text)
    USART_HalfDuplexCmd                      0x08002dc1   Thumb Code    24  stm32f10x_usart.o(.text)
    USART_OverSampling8Cmd                   0x08002dd9   Thumb Code    22  stm32f10x_usart.o(.text)
    USART_OneBitMethodCmd                    0x08002def   Thumb Code    24  stm32f10x_usart.o(.text)
    USART_IrDAConfig                         0x08002e07   Thumb Code    18  stm32f10x_usart.o(.text)
    USART_IrDACmd                            0x08002e19   Thumb Code    24  stm32f10x_usart.o(.text)
    USART_GetFlagStatus                      0x08002e31   Thumb Code    26  stm32f10x_usart.o(.text)
    USART_ClearFlag                          0x08002e4b   Thumb Code    18  stm32f10x_usart.o(.text)
    USART_GetITStatus                        0x08002e5d   Thumb Code    84  stm32f10x_usart.o(.text)
    USART_ClearITPendingBit                  0x08002eb1   Thumb Code    52  stm32f10x_usart.o(.text)
    TIM_DeInit                               0x08002ee5   Thumb Code   424  stm32f10x_tim.o(.text)
    TIM_TimeBaseInit                         0x0800308d   Thumb Code   122  stm32f10x_tim.o(.text)
    TIM_OC1Init                              0x08003107   Thumb Code   132  stm32f10x_tim.o(.text)
    TIM_OC2Init                              0x0800318b   Thumb Code   154  stm32f10x_tim.o(.text)
    TIM_OC3Init                              0x08003225   Thumb Code   150  stm32f10x_tim.o(.text)
    TIM_OC4Init                              0x080032bb   Thumb Code   182  stm32f10x_tim.o(.text)
    TIM_SetIC4Prescaler                      0x08003371   Thumb Code    26  stm32f10x_tim.o(.text)
    TIM_SetIC3Prescaler                      0x0800340d   Thumb Code    18  stm32f10x_tim.o(.text)
    TIM_SetIC2Prescaler                      0x08003499   Thumb Code    26  stm32f10x_tim.o(.text)
    TIM_SetIC1Prescaler                      0x08003535   Thumb Code    18  stm32f10x_tim.o(.text)
    TIM_ICInit                               0x080035b3   Thumb Code   150  stm32f10x_tim.o(.text)
    TIM_PWMIConfig                           0x08003649   Thumb Code   124  stm32f10x_tim.o(.text)
    TIM_BDTRConfig                           0x080036c5   Thumb Code    32  stm32f10x_tim.o(.text)
    TIM_TimeBaseStructInit                   0x080036e5   Thumb Code    18  stm32f10x_tim.o(.text)
    TIM_OCStructInit                         0x080036f7   Thumb Code    20  stm32f10x_tim.o(.text)
    TIM_ICStructInit                         0x0800370b   Thumb Code    18  stm32f10x_tim.o(.text)
    TIM_BDTRStructInit                       0x0800371d   Thumb Code    40  stm32f10x_tim.o(.text)
    TIM_Cmd                                  0x08003745   Thumb Code    24  stm32f10x_tim.o(.text)
    TIM_CtrlPWMOutputs                       0x0800375d   Thumb Code    30  stm32f10x_tim.o(.text)
    TIM_ITConfig                             0x0800377b   Thumb Code    18  stm32f10x_tim.o(.text)
    TIM_GenerateEvent                        0x0800378d   Thumb Code     4  stm32f10x_tim.o(.text)
    TIM_DMAConfig                            0x08003791   Thumb Code    10  stm32f10x_tim.o(.text)
    TIM_DMACmd                               0x0800379b   Thumb Code    18  stm32f10x_tim.o(.text)
    TIM_InternalClockConfig                  0x080037ad   Thumb Code    12  stm32f10x_tim.o(.text)
    TIM_SelectInputTrigger                   0x080037b9   Thumb Code    18  stm32f10x_tim.o(.text)
    TIM_ITRxExternalClockConfig              0x080037cb   Thumb Code    24  stm32f10x_tim.o(.text)
    TIM_TIxExternalClockConfig               0x080037e3   Thumb Code    62  stm32f10x_tim.o(.text)
    TIM_ETRConfig                            0x08003821   Thumb Code    28  stm32f10x_tim.o(.text)
    TIM_ETRClockMode1Config                  0x0800383d   Thumb Code    54  stm32f10x_tim.o(.text)
    TIM_ETRClockMode2Config                  0x08003873   Thumb Code    32  stm32f10x_tim.o(.text)
    TIM_PrescalerConfig                      0x08003893   Thumb Code     6  stm32f10x_tim.o(.text)
    TIM_CounterModeConfig                    0x08003899   Thumb Code    18  stm32f10x_tim.o(.text)
    TIM_EncoderInterfaceConfig               0x080038ab   Thumb Code    66  stm32f10x_tim.o(.text)
    TIM_ForcedOC1Config                      0x080038ed   Thumb Code    18  stm32f10x_tim.o(.text)
    TIM_ForcedOC2Config                      0x080038ff   Thumb Code    26  stm32f10x_tim.o(.text)
    TIM_ForcedOC3Config                      0x08003919   Thumb Code    18  stm32f10x_tim.o(.text)
    TIM_ForcedOC4Config                      0x0800392b   Thumb Code    26  stm32f10x_tim.o(.text)
    TIM_ARRPreloadConfig                     0x08003945   Thumb Code    24  stm32f10x_tim.o(.text)
    TIM_SelectCOM                            0x0800395d   Thumb Code    24  stm32f10x_tim.o(.text)
    TIM_SelectCCDMA                          0x08003975   Thumb Code    24  stm32f10x_tim.o(.text)
    TIM_CCPreloadControl                     0x0800398d   Thumb Code    24  stm32f10x_tim.o(.text)
    TIM_OC1PreloadConfig                     0x080039a5   Thumb Code    18  stm32f10x_tim.o(.text)
    TIM_OC2PreloadConfig                     0x080039b7   Thumb Code    26  stm32f10x_tim.o(.text)
    TIM_OC3PreloadConfig                     0x080039d1   Thumb Code    18  stm32f10x_tim.o(.text)
    TIM_OC4PreloadConfig                     0x080039e3   Thumb Code    26  stm32f10x_tim.o(.text)
    TIM_OC1FastConfig                        0x080039fd   Thumb Code    18  stm32f10x_tim.o(.text)
    TIM_OC2FastConfig                        0x08003a0f   Thumb Code    26  stm32f10x_tim.o(.text)
    TIM_OC3FastConfig                        0x08003a29   Thumb Code    18  stm32f10x_tim.o(.text)
    TIM_OC4FastConfig                        0x08003a3b   Thumb Code    26  stm32f10x_tim.o(.text)
    TIM_ClearOC1Ref                          0x08003a55   Thumb Code    18  stm32f10x_tim.o(.text)
    TIM_ClearOC2Ref                          0x08003a67   Thumb Code    24  stm32f10x_tim.o(.text)
    TIM_ClearOC3Ref                          0x08003a7f   Thumb Code    18  stm32f10x_tim.o(.text)
    TIM_ClearOC4Ref                          0x08003a91   Thumb Code    24  stm32f10x_tim.o(.text)
    TIM_OC1PolarityConfig                    0x08003aa9   Thumb Code    18  stm32f10x_tim.o(.text)
    TIM_OC1NPolarityConfig                   0x08003abb   Thumb Code    18  stm32f10x_tim.o(.text)
    TIM_OC2PolarityConfig                    0x08003acd   Thumb Code    26  stm32f10x_tim.o(.text)
    TIM_OC2NPolarityConfig                   0x08003ae7   Thumb Code    26  stm32f10x_tim.o(.text)
    TIM_OC3PolarityConfig                    0x08003b01   Thumb Code    26  stm32f10x_tim.o(.text)
    TIM_OC3NPolarityConfig                   0x08003b1b   Thumb Code    26  stm32f10x_tim.o(.text)
    TIM_OC4PolarityConfig                    0x08003b35   Thumb Code    26  stm32f10x_tim.o(.text)
    TIM_CCxCmd                               0x08003b4f   Thumb Code    30  stm32f10x_tim.o(.text)
    TIM_CCxNCmd                              0x08003b6d   Thumb Code    30  stm32f10x_tim.o(.text)
    TIM_SelectOCxM                           0x08003b8b   Thumb Code    82  stm32f10x_tim.o(.text)
    TIM_UpdateDisableConfig                  0x08003bdd   Thumb Code    24  stm32f10x_tim.o(.text)
    TIM_UpdateRequestConfig                  0x08003bf5   Thumb Code    24  stm32f10x_tim.o(.text)
    TIM_SelectHallSensor                     0x08003c0d   Thumb Code    24  stm32f10x_tim.o(.text)
    TIM_SelectOnePulseMode                   0x08003c25   Thumb Code    18  stm32f10x_tim.o(.text)
    TIM_SelectOutputTrigger                  0x08003c37   Thumb Code    18  stm32f10x_tim.o(.text)
    TIM_SelectSlaveMode                      0x08003c49   Thumb Code    18  stm32f10x_tim.o(.text)
    TIM_SelectMasterSlaveMode                0x08003c5b   Thumb Code    18  stm32f10x_tim.o(.text)
    TIM_SetCounter                           0x08003c6d   Thumb Code     4  stm32f10x_tim.o(.text)
    TIM_SetAutoreload                        0x08003c71   Thumb Code     4  stm32f10x_tim.o(.text)
    TIM_SetCompare1                          0x08003c75   Thumb Code     4  stm32f10x_tim.o(.text)
    TIM_SetCompare2                          0x08003c79   Thumb Code     4  stm32f10x_tim.o(.text)
    TIM_SetCompare3                          0x08003c7d   Thumb Code     4  stm32f10x_tim.o(.text)
    TIM_SetCompare4                          0x08003c81   Thumb Code     6  stm32f10x_tim.o(.text)
    TIM_SetClockDivision                     0x08003c87   Thumb Code    18  stm32f10x_tim.o(.text)
    TIM_GetCapture1                          0x08003c99   Thumb Code     6  stm32f10x_tim.o(.text)
    TIM_GetCapture2                          0x08003c9f   Thumb Code     6  stm32f10x_tim.o(.text)
    TIM_GetCapture3                          0x08003ca5   Thumb Code     6  stm32f10x_tim.o(.text)
    TIM_GetCapture4                          0x08003cab   Thumb Code     8  stm32f10x_tim.o(.text)
    TIM_GetCounter                           0x08003cb3   Thumb Code     6  stm32f10x_tim.o(.text)
    TIM_GetPrescaler                         0x08003cb9   Thumb Code     6  stm32f10x_tim.o(.text)
    TIM_GetFlagStatus                        0x08003cbf   Thumb Code    18  stm32f10x_tim.o(.text)
    TIM_ClearFlag                            0x08003cd1   Thumb Code     6  stm32f10x_tim.o(.text)
    TIM_GetITStatus                          0x08003cd7   Thumb Code    34  stm32f10x_tim.o(.text)
    TIM_ClearITPendingBit                    0x08003cf9   Thumb Code     6  stm32f10x_tim.o(.text)
    __use_no_semihosting                     0x08003cff   Thumb Code     2  use_no_semi_2.o(.text)
    atoi                                     0x08003d01   Thumb Code    26  atoi.o(.text)
    strstr                                   0x08003d1b   Thumb Code    36  strstr.o(.text)
    __aeabi_memclr4                          0x08003d3f   Thumb Code     0  rt_memclr_w.o(.text)
    __aeabi_memclr8                          0x08003d3f   Thumb Code     0  rt_memclr_w.o(.text)
    __rt_memclr_w                            0x08003d3f   Thumb Code    78  rt_memclr_w.o(.text)
    _memset_w                                0x08003d43   Thumb Code     0  rt_memclr_w.o(.text)
    __use_two_region_memory                  0x08003d8d   Thumb Code     2  heapauxi.o(.text)
    __rt_heap_escrow$2region                 0x08003d8f   Thumb Code     2  heapauxi.o(.text)
    __rt_heap_expand$2region                 0x08003d91   Thumb Code     2  heapauxi.o(.text)
    __I$use$semihosting                      0x08003d93   Thumb Code     0  use_no_semi.o(.text)
    __use_no_semihosting_swi                 0x08003d93   Thumb Code     2  use_no_semi.o(.text)
    __aeabi_errno_addr                       0x08003d95   Thumb Code     8  rt_errno_addr_intlibspace.o(.text)
    __errno$intlibspace                      0x08003d95   Thumb Code     0  rt_errno_addr_intlibspace.o(.text)
    __rt_errno_addr$intlibspace              0x08003d95   Thumb Code     0  rt_errno_addr_intlibspace.o(.text)
    strtol                                   0x08003d9d   Thumb Code   112  strtol.o(.text)
    __user_libspace                          0x08003e0d   Thumb Code     8  libspace.o(.text)
    __user_perproc_libspace                  0x08003e0d   Thumb Code     0  libspace.o(.text)
    __user_perthread_libspace                0x08003e0d   Thumb Code     0  libspace.o(.text)
    __rt_ctype_table                         0x08003e15   Thumb Code    16  rt_ctype_table.o(.text)
    _strtoul                                 0x08003e25   Thumb Code   158  _strtoul.o(.text)
    __user_setup_stackheap                   0x08003ec3   Thumb Code    74  sys_stackheap_outer.o(.text)
    __rt_locale                              0x08003f0d   Thumb Code     8  rt_locale_intlibspace.o(.text)
    _chval                                   0x08003f15   Thumb Code    28  _chval.o(.text)
    exit                                     0x08003f31   Thumb Code    12  exit.o(.text)
    strcmp                                   0x08003f3d   Thumb Code   128  strcmpv7m.o(.text)
    _get_lc_ctype                            0x08003fbd   Thumb Code    44  lc_ctype_c.o(locale$$code)
    __aeabi_fadd                             0x08003fe9   Thumb Code     0  faddsub_clz.o(x$fpl$fadd)
    _fadd                                    0x08003fe9   Thumb Code   196  faddsub_clz.o(x$fpl$fadd)
    __aeabi_fdiv                             0x080040ad   Thumb Code     0  fdiv.o(x$fpl$fdiv)
    _fdiv                                    0x080040ad   Thumb Code   384  fdiv.o(x$fpl$fdiv)
    __aeabi_f2iz                             0x08004231   Thumb Code     0  ffix.o(x$fpl$ffix)
    _ffix                                    0x08004231   Thumb Code    54  ffix.o(x$fpl$ffix)
    __aeabi_f2uiz                            0x08004269   Thumb Code     0  ffixu.o(x$fpl$ffixu)
    _ffixu                                   0x08004269   Thumb Code    62  ffixu.o(x$fpl$ffixu)
    __aeabi_i2f                              0x080042a9   Thumb Code     0  fflt_clz.o(x$fpl$fflt)
    _fflt                                    0x080042a9   Thumb Code    48  fflt_clz.o(x$fpl$fflt)
    __aeabi_ui2f                             0x080042d9   Thumb Code     0  fflt_clz.o(x$fpl$ffltu)
    _ffltu                                   0x080042d9   Thumb Code    38  fflt_clz.o(x$fpl$ffltu)
    __aeabi_fmul                             0x08004301   Thumb Code     0  fmul.o(x$fpl$fmul)
    _fmul                                    0x08004301   Thumb Code   258  fmul.o(x$fpl$fmul)
    __fpl_fnaninf                            0x08004403   Thumb Code   140  fnaninf.o(x$fpl$fnaninf)
    __fpl_fretinf                            0x0800448f   Thumb Code    10  fretinf.o(x$fpl$fretinf)
    __aeabi_fsub                             0x08004499   Thumb Code     0  faddsub_clz.o(x$fpl$fsub)
    _fsub                                    0x08004499   Thumb Code   234  faddsub_clz.o(x$fpl$fsub)
    __I$use$fp                               0x08004582   Number         0  usenofp.o(x$fpl$usenofp)
    Region$$Table$$Base                      0x08004684   Number         0  anon$$obj.o(Region$$Table)
    Region$$Table$$Limit                     0x080046a4   Number         0  anon$$obj.o(Region$$Table)
    __ctype                                  0x080046b1   Data           0  lc_ctype_c.o(locale$$data)
    DD                                       0x20000000   Data           2  main.o(.data)
    motor1_pwm_div                           0x20000004   Data           4  main.o(.data)
    motor2_pwm_div                           0x20000008   Data           4  main.o(.data)
    motor3_pwm_div                           0x2000000c   Data           4  main.o(.data)
    motor4_pwm_div                           0x20000010   Data           4  main.o(.data)
    KDshu                                    0x20000014   Data           4  main.o(.data)
    motor_pwm1                               0x20000018   Data           2  main.o(.data)
    motor_pwm2                               0x2000001a   Data           2  main.o(.data)
    command_success                          0x2000001c   Data           1  main.o(.data)
    pid_zhi                                  0x2000001e   Data           2  main.o(.data)
    SystemCoreClock                          0x20000020   Data           4  system_stm32f10x.o(.data)
    AHBPrescTable                            0x20000024   Data          16  system_stm32f10x.o(.data)
    motor_round_flag1                        0x20000034   Data           1  motor.o(.data)
    motor_round_flag2                        0x20000035   Data           1  motor.o(.data)
    motor_round_flag3                        0x20000036   Data           1  motor.o(.data)
    motor_round_flag4                        0x20000037   Data           1  motor.o(.data)
    motor_dir_flag1                          0x20000038   Data           1  motor.o(.data)
    motor_dir_flag2                          0x20000039   Data           1  motor.o(.data)
    motor_dir_flag3                          0x2000003a   Data           1  motor.o(.data)
    motor_dir_flag4                          0x2000003b   Data           1  motor.o(.data)
    motor1_qep_last                          0x2000003c   Data           2  motor.o(.data)
    motor2_qep_last                          0x2000003e   Data           2  motor.o(.data)
    motor3_qep_last                          0x20000040   Data           2  motor.o(.data)
    motor4_qep_last                          0x20000042   Data           2  motor.o(.data)
    motor1_round                             0x20000044   Data           4  motor.o(.data)
    motor2_round                             0x20000048   Data           4  motor.o(.data)
    motor3_round                             0x2000004c   Data           4  motor.o(.data)
    motor4_round                             0x20000050   Data           4  motor.o(.data)
    M1XW1_STA                                0x20000054   Data           1  motor.o(.data)
    M1XW2_STA                                0x20000055   Data           1  motor.o(.data)
    M2XW1_STA                                0x20000056   Data           1  motor.o(.data)
    M2XW2_STA                                0x20000057   Data           1  motor.o(.data)
    M3XW1_STA                                0x20000058   Data           1  motor.o(.data)
    M3XW2_STA                                0x20000059   Data           1  motor.o(.data)
    M4XW1_STA                                0x2000005a   Data           1  motor.o(.data)
    M4XW2_STA                                0x2000005b   Data           1  motor.o(.data)
    M1DIR                                    0x2000005c   Data           1  motor.o(.data)
    M2DIR                                    0x2000005d   Data           1  motor.o(.data)
    M3DIR                                    0x2000005e   Data           1  motor.o(.data)
    M4DIR                                    0x2000005f   Data           1  motor.o(.data)
    pi_motor_next_enc1                       0x20000060   Data           4  control.o(.data)
    pi_motor_next_enc2                       0x20000064   Data           4  control.o(.data)
    pi_motor_next_enc3                       0x20000068   Data           4  control.o(.data)
    pi_motor_next_enc4                       0x2000006c   Data           4  control.o(.data)
    pi_motor_new_enc1                        0x20000070   Data           4  control.o(.data)
    pi_motor_new_enc2                        0x20000074   Data           4  control.o(.data)
    pi_motor_new_enc3                        0x20000078   Data           4  control.o(.data)
    pi_motor_new_enc4                        0x2000007c   Data           4  control.o(.data)
    Target_velocity1                         0x20000080   Data           4  control.o(.data)
    Target_velocity2                         0x20000084   Data           4  control.o(.data)
    Target_velocity3                         0x20000088   Data           4  control.o(.data)
    Target_velocity4                         0x2000008c   Data           4  control.o(.data)
    Pwm1                                     0x20000090   Data           4  control.o(.data)
    Pwm2                                     0x20000094   Data           4  control.o(.data)
    Pwm3                                     0x20000098   Data           4  control.o(.data)
    Pwm4                                     0x2000009c   Data           4  control.o(.data)
    rnm                                      0x200000a0   Data           4  control.o(.data)
    t                                        0x200000a4   Data           2  control.o(.data)
    cs                                       0x200000a8   Data           4  control.o(.data)
    __stdout                                 0x200000dc   Data           4  usart.o(.data)
    USART_RX_STA                             0x200000e0   Data           2  usart.o(.data)
    USART_RX_BUF                             0x200000f8   Data         200  usart.o(.bss)
    __libspace_start                         0x200001c0   Data          96  libspace.o(.bss)
    __temporary_stack_top$libspace           0x20000220   Data           0  libspace.o(.bss)



==============================================================================

Memory Map of the image

  Image Entry point : 0x08000131

  Load Region LR_IROM1 (Base: 0x08000000, Size: 0x000048ac, Max: 0x00040000, ABSOLUTE)

    Execution Region ER_IROM1 (Base: 0x08000000, Size: 0x000047b4, Max: 0x00040000, ABSOLUTE)

    Base Addr    Size         Type   Attr      Idx    E Section Name        Object

    0x08000000   0x00000130   Data   RO          395    RESET               startup_stm32f10x_hd.o
    0x08000130   0x00000008   Code   RO          474  * !!!main             c_w.l(__main.o)
    0x08000138   0x00000034   Code   RO          708    !!!scatter          c_w.l(__scatter.o)
    0x0800016c   0x0000001a   Code   RO          710    !!handler_copy      c_w.l(__scatter_copy.o)
    0x08000186   0x00000002   PAD
    0x08000188   0x0000001c   Code   RO          712    !!handler_zi        c_w.l(__scatter_zi.o)
    0x080001a4   0x00000002   Code   RO          584    .ARM.Collect$$libinit$$00000000  c_w.l(libinit.o)
    0x080001a6   0x00000000   Code   RO          590    .ARM.Collect$$libinit$$00000002  c_w.l(libinit2.o)
    0x080001a6   0x00000000   Code   RO          592    .ARM.Collect$$libinit$$00000004  c_w.l(libinit2.o)
    0x080001a6   0x00000000   Code   RO          595    .ARM.Collect$$libinit$$0000000A  c_w.l(libinit2.o)
    0x080001a6   0x00000000   Code   RO          597    .ARM.Collect$$libinit$$0000000C  c_w.l(libinit2.o)
    0x080001a6   0x00000000   Code   RO          599    .ARM.Collect$$libinit$$0000000E  c_w.l(libinit2.o)
    0x080001a6   0x00000006   Code   RO          600    .ARM.Collect$$libinit$$0000000F  c_w.l(libinit2.o)
    0x080001ac   0x00000000   Code   RO          602    .ARM.Collect$$libinit$$00000011  c_w.l(libinit2.o)
    0x080001ac   0x0000000c   Code   RO          603    .ARM.Collect$$libinit$$00000012  c_w.l(libinit2.o)
    0x080001b8   0x00000000   Code   RO          604    .ARM.Collect$$libinit$$00000013  c_w.l(libinit2.o)
    0x080001b8   0x00000000   Code   RO          606    .ARM.Collect$$libinit$$00000015  c_w.l(libinit2.o)
    0x080001b8   0x00000000   Code   RO          608    .ARM.Collect$$libinit$$00000017  c_w.l(libinit2.o)
    0x080001b8   0x00000000   Code   RO          610    .ARM.Collect$$libinit$$00000019  c_w.l(libinit2.o)
    0x080001b8   0x00000000   Code   RO          612    .ARM.Collect$$libinit$$0000001B  c_w.l(libinit2.o)
    0x080001b8   0x00000000   Code   RO          614    .ARM.Collect$$libinit$$0000001D  c_w.l(libinit2.o)
    0x080001b8   0x00000000   Code   RO          616    .ARM.Collect$$libinit$$0000001F  c_w.l(libinit2.o)
    0x080001b8   0x00000000   Code   RO          618    .ARM.Collect$$libinit$$00000021  c_w.l(libinit2.o)
    0x080001b8   0x00000000   Code   RO          620    .ARM.Collect$$libinit$$00000023  c_w.l(libinit2.o)
    0x080001b8   0x00000000   Code   RO          622    .ARM.Collect$$libinit$$00000025  c_w.l(libinit2.o)
    0x080001b8   0x00000000   Code   RO          626    .ARM.Collect$$libinit$$0000002C  c_w.l(libinit2.o)
    0x080001b8   0x00000000   Code   RO          628    .ARM.Collect$$libinit$$0000002E  c_w.l(libinit2.o)
    0x080001b8   0x00000000   Code   RO          630    .ARM.Collect$$libinit$$00000030  c_w.l(libinit2.o)
    0x080001b8   0x00000000   Code   RO          632    .ARM.Collect$$libinit$$00000032  c_w.l(libinit2.o)
    0x080001b8   0x00000002   Code   RO          633    .ARM.Collect$$libinit$$00000033  c_w.l(libinit2.o)
    0x080001ba   0x00000002   Code   RO          651    .ARM.Collect$$libshutdown$$00000000  c_w.l(libshutdown.o)
    0x080001bc   0x00000000   Code   RO          662    .ARM.Collect$$libshutdown$$00000003  c_w.l(libshutdown2.o)
    0x080001bc   0x00000000   Code   RO          665    .ARM.Collect$$libshutdown$$00000006  c_w.l(libshutdown2.o)
    0x080001bc   0x00000000   Code   RO          668    .ARM.Collect$$libshutdown$$00000009  c_w.l(libshutdown2.o)
    0x080001bc   0x00000000   Code   RO          670    .ARM.Collect$$libshutdown$$0000000B  c_w.l(libshutdown2.o)
    0x080001bc   0x00000000   Code   RO          673    .ARM.Collect$$libshutdown$$0000000E  c_w.l(libshutdown2.o)
    0x080001bc   0x00000002   Code   RO          674    .ARM.Collect$$libshutdown$$0000000F  c_w.l(libshutdown2.o)
    0x080001be   0x00000000   Code   RO          526    .ARM.Collect$$rtentry$$00000000  c_w.l(__rtentry.o)
    0x080001be   0x00000000   Code   RO          547    .ARM.Collect$$rtentry$$00000002  c_w.l(__rtentry2.o)
    0x080001be   0x00000006   Code   RO          559    .ARM.Collect$$rtentry$$00000004  c_w.l(__rtentry4.o)
    0x080001c4   0x00000000   Code   RO          549    .ARM.Collect$$rtentry$$00000009  c_w.l(__rtentry2.o)
    0x080001c4   0x00000004   Code   RO          550    .ARM.Collect$$rtentry$$0000000A  c_w.l(__rtentry2.o)
    0x080001c8   0x00000000   Code   RO          552    .ARM.Collect$$rtentry$$0000000C  c_w.l(__rtentry2.o)
    0x080001c8   0x00000008   Code   RO          553    .ARM.Collect$$rtentry$$0000000D  c_w.l(__rtentry2.o)
    0x080001d0   0x00000002   Code   RO          585    .ARM.Collect$$rtexit$$00000000  c_w.l(rtexit.o)
    0x080001d2   0x00000000   Code   RO          635    .ARM.Collect$$rtexit$$00000002  c_w.l(rtexit2.o)
    0x080001d2   0x00000004   Code   RO          636    .ARM.Collect$$rtexit$$00000003  c_w.l(rtexit2.o)
    0x080001d6   0x00000006   Code   RO          637    .ARM.Collect$$rtexit$$00000004  c_w.l(rtexit2.o)
    0x080001dc   0x000000c0   Code   RO            1    .text               main.o
    0x0800029c   0x0000001a   Code   RO          147    .text               stm32f10x_it.o
    0x080002b6   0x00000002   PAD
    0x080002b8   0x000001e0   Code   RO          188    .text               system_stm32f10x.o
    0x08000498   0x00000090   Code   RO          206    .text               led.o
    0x08000528   0x00000a20   Code   RO          231    .text               motor.o
    0x08000f48   0x000002b0   Code   RO          250    .text               enc.o
    0x080011f8   0x00000078   Code   RO          262    .text               timer.o
    0x08001270   0x000007d4   Code   RO          277    .text               command.o
    0x08001a44   0x00000660   Code   RO          310    .text               control.o
    0x080020a4   0x000000d4   Code   RO          329    .text               delay.o
    0x08002178   0x00000148   Code   RO          360    .text               usart.o
    0x080022c0   0x00000040   Code   RO          396    .text               startup_stm32f10x_hd.o
    0x08002300   0x000000dc   Code   RO          400    .text               misc.o
    0x080023dc   0x0000035c   Code   RO          412    .text               stm32f10x_gpio.o
    0x08002738   0x000003a4   Code   RO          424    .text               stm32f10x_rcc.o
    0x08002adc   0x00000408   Code   RO          438    .text               stm32f10x_usart.o
    0x08002ee4   0x00000e1a   Code   RO          450    .text               stm32f10x_tim.o
    0x08003cfe   0x00000002   Code   RO          464    .text               c_w.l(use_no_semi_2.o)
    0x08003d00   0x0000001a   Code   RO          466    .text               c_w.l(atoi.o)
    0x08003d1a   0x00000024   Code   RO          468    .text               c_w.l(strstr.o)
    0x08003d3e   0x0000004e   Code   RO          470    .text               c_w.l(rt_memclr_w.o)
    0x08003d8c   0x00000006   Code   RO          472    .text               c_w.l(heapauxi.o)
    0x08003d92   0x00000002   Code   RO          524    .text               c_w.l(use_no_semi.o)
    0x08003d94   0x00000008   Code   RO          530    .text               c_w.l(rt_errno_addr_intlibspace.o)
    0x08003d9c   0x00000070   Code   RO          532    .text               c_w.l(strtol.o)
    0x08003e0c   0x00000008   Code   RO          543    .text               c_w.l(libspace.o)
    0x08003e14   0x00000010   Code   RO          561    .text               c_w.l(rt_ctype_table.o)
    0x08003e24   0x0000009e   Code   RO          563    .text               c_w.l(_strtoul.o)
    0x08003ec2   0x0000004a   Code   RO          565    .text               c_w.l(sys_stackheap_outer.o)
    0x08003f0c   0x00000008   Code   RO          570    .text               c_w.l(rt_locale_intlibspace.o)
    0x08003f14   0x0000001c   Code   RO          572    .text               c_w.l(_chval.o)
    0x08003f30   0x0000000c   Code   RO          577    .text               c_w.l(exit.o)
    0x08003f3c   0x00000080   Code   RO          587    .text               c_w.l(strcmpv7m.o)
    0x08003fbc   0x0000002c   Code   RO          575    locale$$code        c_w.l(lc_ctype_c.o)
    0x08003fe8   0x000000c4   Code   RO          498    x$fpl$fadd          fz_ws.l(faddsub_clz.o)
    0x080040ac   0x00000184   Code   RO          505    x$fpl$fdiv          fz_ws.l(fdiv.o)
    0x08004230   0x00000036   Code   RO          508    x$fpl$ffix          fz_ws.l(ffix.o)
    0x08004266   0x00000002   PAD
    0x08004268   0x0000003e   Code   RO          512    x$fpl$ffixu         fz_ws.l(ffixu.o)
    0x080042a6   0x00000002   PAD
    0x080042a8   0x00000030   Code   RO          517    x$fpl$fflt          fz_ws.l(fflt_clz.o)
    0x080042d8   0x00000026   Code   RO          516    x$fpl$ffltu         fz_ws.l(fflt_clz.o)
    0x080042fe   0x00000002   PAD
    0x08004300   0x00000102   Code   RO          522    x$fpl$fmul          fz_ws.l(fmul.o)
    0x08004402   0x0000008c   Code   RO          538    x$fpl$fnaninf       fz_ws.l(fnaninf.o)
    0x0800448e   0x0000000a   Code   RO          540    x$fpl$fretinf       fz_ws.l(fretinf.o)
    0x08004498   0x000000ea   Code   RO          500    x$fpl$fsub          fz_ws.l(faddsub_clz.o)
    0x08004582   0x00000000   Code   RO          542    x$fpl$usenofp       fz_ws.l(usenofp.o)
    0x08004582   0x00000100   Data   RO          278    .constdata          command.o
    0x08004682   0x00000002   PAD
    0x08004684   0x00000020   Data   RO          706    Region$$Table       anon$$obj.o
    0x080046a4   0x00000110   Data   RO          574    locale$$data        c_w.l(lc_ctype_c.o)


    Execution Region RW_IRAM1 (Base: 0x20000000, Size: 0x00000820, Max: 0x0000c000, ABSOLUTE)

    Base Addr    Size         Type   Attr      Idx    E Section Name        Object

    0x20000000   0x00000020   Data   RW            3    .data               main.o
    0x20000020   0x00000014   Data   RW          189    .data               system_stm32f10x.o
    0x20000034   0x0000002c   Data   RW          232    .data               motor.o
    0x20000060   0x00000078   Data   RW          311    .data               control.o
    0x200000d8   0x00000004   Data   RW          330    .data               delay.o
    0x200000dc   0x00000006   Data   RW          362    .data               usart.o
    0x200000e2   0x00000014   Data   RW          425    .data               stm32f10x_rcc.o
    0x200000f6   0x00000002   PAD
    0x200000f8   0x000000c8   Zero   RW          361    .bss                usart.o
    0x200001c0   0x00000060   Zero   RW          544    .bss                c_w.l(libspace.o)
    0x20000220   0x00000200   Zero   RW          394    HEAP                startup_stm32f10x_hd.o
    0x20000420   0x00000400   Zero   RW          393    STACK               startup_stm32f10x_hd.o


==============================================================================

Image component sizes


      Code (inc. data)   RO Data    RW Data    ZI Data      Debug   Object Name

      2004        146        256          0          0       3312   command.o
      1632        180          0        120          0       3366   control.o
       212         18          0          4          0       1035   delay.o
       688         38          0          0          0       1542   enc.o
       144         12          0          0          0        539   led.o
       192         14          0         32          0     254428   main.o
       220         22          0          0          0       1809   misc.o
      2592        230          0         44          0       5238   motor.o
        64         26        304          0       1536        800   startup_stm32f10x_hd.o
       860         38          0          0          0       5657   stm32f10x_gpio.o
        26          0          0          0          0       1186   stm32f10x_it.o
       932         36          0         20          0       8836   stm32f10x_rcc.o
      3610         88          0          0          0      22140   stm32f10x_tim.o
      1032         22          0          0          0       8380   stm32f10x_usart.o
         0          0          0          0          0         32   sys.o
       480         38          0         20          0       1755   system_stm32f10x.o
       120          4          0          0          0        572   timer.o
       328         22          0          6        200       3174   usart.o

    ----------------------------------------------------------------------
     15138        934        594        248       1736     323801   Object Totals
         0          0         32          0          0          0   (incl. Generated)
         2          0          2          2          0          0   (incl. Padding)

    ----------------------------------------------------------------------

      Code (inc. data)   RO Data    RW Data    ZI Data      Debug   Library Member Name

         8          0          0          0          0         68   __main.o
         0          0          0          0          0          0   __rtentry.o
        12          0          0          0          0          0   __rtentry2.o
         6          0          0          0          0          0   __rtentry4.o
        52          8          0          0          0          0   __scatter.o
        26          0          0          0          0          0   __scatter_copy.o
        28          0          0          0          0          0   __scatter_zi.o
        28          0          0          0          0         68   _chval.o
       158          0          0          0          0         92   _strtoul.o
        26          0          0          0          0         80   atoi.o
        12          0          0          0          0         72   exit.o
         6          0          0          0          0        152   heapauxi.o
        44         10        272          0          0         76   lc_ctype_c.o
         2          0          0          0          0          0   libinit.o
        20          0          0          0          0          0   libinit2.o
         2          0          0          0          0          0   libshutdown.o
         2          0          0          0          0          0   libshutdown2.o
         8          4          0          0         96         68   libspace.o
        16          4          0          0          0         76   rt_ctype_table.o
         8          4          0          0          0         68   rt_errno_addr_intlibspace.o
         8          4          0          0          0         68   rt_locale_intlibspace.o
        78          0          0          0          0         80   rt_memclr_w.o
         2          0          0          0          0          0   rtexit.o
        10          0          0          0          0          0   rtexit2.o
       128          0          0          0          0         68   strcmpv7m.o
        36          0          0          0          0         80   strstr.o
       112          0          0          0          0         88   strtol.o
        74          0          0          0          0         80   sys_stackheap_outer.o
         2          0          0          0          0         68   use_no_semi.o
         2          0          0          0          0         68   use_no_semi_2.o
       430          8          0          0          0        168   faddsub_clz.o
       388         76          0          0          0         96   fdiv.o
        54          4          0          0          0         84   ffix.o
        62          4          0          0          0         84   ffixu.o
        86          0          0          0          0        136   fflt_clz.o
       258          4          0          0          0         84   fmul.o
       140          4          0          0          0         84   fnaninf.o
        10          0          0          0          0         68   fretinf.o
         0          0          0          0          0          0   usenofp.o

    ----------------------------------------------------------------------
      2352        134        272          0         96       2224   Library Totals
         8          0          0          0          0          0   (incl. Padding)

    ----------------------------------------------------------------------

      Code (inc. data)   RO Data    RW Data    ZI Data      Debug   Library Name

       916         34        272          0         96       1420   c_w.l
      1428        100          0          0          0        804   fz_ws.l

    ----------------------------------------------------------------------
      2352        134        272          0         96       2224   Library Totals

    ----------------------------------------------------------------------

==============================================================================


      Code (inc. data)   RO Data    RW Data    ZI Data      Debug   

     17490       1068        866        248       1832     323525   Grand Totals
     17490       1068        866        248       1832     323525   ELF Image Totals
     17490       1068        866        248          0          0   ROM Totals

==============================================================================

    Total RO  Size (Code + RO Data)                18356 (  17.93kB)
    Total RW  Size (RW Data + ZI Data)              2080 (   2.03kB)
    Total ROM Size (Code + RO Data + RW Data)      18604 (  18.17kB)

==============================================================================

